{"abi":[{"type":"constructor","inputs":[{"name":"initialOwner","type":"address","internalType":"address"}],"stateMutability":"nonpayable"},{"type":"function","name":"approve","inputs":[{"name":"to","type":"address","internalType":"address"},{"name":"tokenId","type":"uint256","internalType":"uint256"}],"outputs":[],"stateMutability":"nonpayable"},{"type":"function","name":"balanceOf","inputs":[{"name":"owner","type":"address","internalType":"address"}],"outputs":[{"name":"","type":"uint256","internalType":"uint256"}],"stateMutability":"view"},{"type":"function","name":"generateTokenURI","inputs":[{"name":"name","type":"string","internalType":"string"},{"name":"description","type":"string","internalType":"string"},{"name":"image","type":"string","internalType":"string"},{"name":"humidity","type":"uint256","internalType":"uint256"},{"name":"windSpeed","type":"uint256","internalType":"uint256"},{"name":"temperature","type":"uint256","internalType":"uint256"}],"outputs":[{"name":"","type":"string","internalType":"string"}],"stateMutability":"pure"},{"type":"function","name":"getApproved","inputs":[{"name":"tokenId","type":"uint256","internalType":"uint256"}],"outputs":[{"name":"","type":"address","internalType":"address"}],"stateMutability":"view"},{"type":"function","name":"getWeatherData","inputs":[{"name":"tokenId","type":"uint256","internalType":"uint256"}],"outputs":[{"name":"","type":"string","internalType":"string"},{"name":"","type":"string","internalType":"string"},{"name":"","type":"string","internalType":"string"},{"name":"","type":"uint256","internalType":"uint256"},{"name":"","type":"uint256","internalType":"uint256"},{"name":"","type":"uint256","internalType":"uint256"}],"stateMutability":"view"},{"type":"function","name":"isApprovedForAll","inputs":[{"name":"owner","type":"address","internalType":"address"},{"name":"operator","type":"address","internalType":"address"}],"outputs":[{"name":"","type":"bool","internalType":"bool"}],"stateMutability":"view"},{"type":"function","name":"mintWeatherNFT","inputs":[{"name":"to","type":"address","internalType":"address"},{"name":"name","type":"string","internalType":"string"},{"name":"description","type":"string","internalType":"string"},{"name":"image","type":"string","internalType":"string"},{"name":"humidity","type":"uint256","internalType":"uint256"},{"name":"windSpeed","type":"uint256","internalType":"uint256"},{"name":"temperature","type":"uint256","internalType":"uint256"}],"outputs":[],"stateMutability":"nonpayable"},{"type":"function","name":"name","inputs":[],"outputs":[{"name":"","type":"string","internalType":"string"}],"stateMutability":"view"},{"type":"function","name":"owner","inputs":[],"outputs":[{"name":"","type":"address","internalType":"address"}],"stateMutability":"view"},{"type":"function","name":"ownerOf","inputs":[{"name":"tokenId","type":"uint256","internalType":"uint256"}],"outputs":[{"name":"","type":"address","internalType":"address"}],"stateMutability":"view"},{"type":"function","name":"renounceOwnership","inputs":[],"outputs":[],"stateMutability":"nonpayable"},{"type":"function","name":"safeTransferFrom","inputs":[{"name":"from","type":"address","internalType":"address"},{"name":"to","type":"address","internalType":"address"},{"name":"tokenId","type":"uint256","internalType":"uint256"}],"outputs":[],"stateMutability":"nonpayable"},{"type":"function","name":"safeTransferFrom","inputs":[{"name":"from","type":"address","internalType":"address"},{"name":"to","type":"address","internalType":"address"},{"name":"tokenId","type":"uint256","internalType":"uint256"},{"name":"data","type":"bytes","internalType":"bytes"}],"outputs":[],"stateMutability":"nonpayable"},{"type":"function","name":"setApprovalForAll","inputs":[{"name":"operator","type":"address","internalType":"address"},{"name":"approved","type":"bool","internalType":"bool"}],"outputs":[],"stateMutability":"nonpayable"},{"type":"function","name":"supportsInterface","inputs":[{"name":"interfaceId","type":"bytes4","internalType":"bytes4"}],"outputs":[{"name":"","type":"bool","internalType":"bool"}],"stateMutability":"view"},{"type":"function","name":"symbol","inputs":[],"outputs":[{"name":"","type":"string","internalType":"string"}],"stateMutability":"view"},{"type":"function","name":"tokenCounter","inputs":[],"outputs":[{"name":"","type":"uint256","internalType":"uint256"}],"stateMutability":"view"},{"type":"function","name":"tokenURI","inputs":[{"name":"tokenId","type":"uint256","internalType":"uint256"}],"outputs":[{"name":"","type":"string","internalType":"string"}],"stateMutability":"view"},{"type":"function","name":"transferFrom","inputs":[{"name":"from","type":"address","internalType":"address"},{"name":"to","type":"address","internalType":"address"},{"name":"tokenId","type":"uint256","internalType":"uint256"}],"outputs":[],"stateMutability":"nonpayable"},{"type":"function","name":"transferOwnership","inputs":[{"name":"newOwner","type":"address","internalType":"address"}],"outputs":[],"stateMutability":"nonpayable"},{"type":"function","name":"updateWeatherData","inputs":[{"name":"tokenId","type":"uint256","internalType":"uint256"},{"name":"name","type":"string","internalType":"string"},{"name":"description","type":"string","internalType":"string"},{"name":"image","type":"string","internalType":"string"},{"name":"humidity","type":"uint256","internalType":"uint256"},{"name":"windSpeed","type":"uint256","internalType":"uint256"},{"name":"temperature","type":"uint256","internalType":"uint256"}],"outputs":[],"stateMutability":"nonpayable"},{"type":"function","name":"weatherData","inputs":[{"name":"","type":"uint256","internalType":"uint256"}],"outputs":[{"name":"name","type":"string","internalType":"string"},{"name":"description","type":"string","internalType":"string"},{"name":"image","type":"string","internalType":"string"},{"name":"humidity","type":"uint256","internalType":"uint256"},{"name":"windSpeed","type":"uint256","internalType":"uint256"},{"name":"temperature","type":"uint256","internalType":"uint256"}],"stateMutability":"view"},{"type":"event","name":"Approval","inputs":[{"name":"owner","type":"address","indexed":true,"internalType":"address"},{"name":"approved","type":"address","indexed":true,"internalType":"address"},{"name":"tokenId","type":"uint256","indexed":true,"internalType":"uint256"}],"anonymous":false},{"type":"event","name":"ApprovalForAll","inputs":[{"name":"owner","type":"address","indexed":true,"internalType":"address"},{"name":"operator","type":"address","indexed":true,"internalType":"address"},{"name":"approved","type":"bool","indexed":false,"internalType":"bool"}],"anonymous":false},{"type":"event","name":"BatchMetadataUpdate","inputs":[{"name":"_fromTokenId","type":"uint256","indexed":false,"internalType":"uint256"},{"name":"_toTokenId","type":"uint256","indexed":false,"internalType":"uint256"}],"anonymous":false},{"type":"event","name":"MetadataUpdate","inputs":[{"name":"_tokenId","type":"uint256","indexed":false,"internalType":"uint256"}],"anonymous":false},{"type":"event","name":"OwnershipTransferred","inputs":[{"name":"previousOwner","type":"address","indexed":true,"internalType":"address"},{"name":"newOwner","type":"address","indexed":true,"internalType":"address"}],"anonymous":false},{"type":"event","name":"Transfer","inputs":[{"name":"from","type":"address","indexed":true,"internalType":"address"},{"name":"to","type":"address","indexed":true,"internalType":"address"},{"name":"tokenId","type":"uint256","indexed":true,"internalType":"uint256"}],"anonymous":false},{"type":"error","name":"ERC721IncorrectOwner","inputs":[{"name":"sender","type":"address","internalType":"address"},{"name":"tokenId","type":"uint256","internalType":"uint256"},{"name":"owner","type":"address","internalType":"address"}]},{"type":"error","name":"ERC721InsufficientApproval","inputs":[{"name":"operator","type":"address","internalType":"address"},{"name":"tokenId","type":"uint256","internalType":"uint256"}]},{"type":"error","name":"ERC721InvalidApprover","inputs":[{"name":"approver","type":"address","internalType":"address"}]},{"type":"error","name":"ERC721InvalidOperator","inputs":[{"name":"operator","type":"address","internalType":"address"}]},{"type":"error","name":"ERC721InvalidOwner","inputs":[{"name":"owner","type":"address","internalType":"address"}]},{"type":"error","name":"ERC721InvalidReceiver","inputs":[{"name":"receiver","type":"address","internalType":"address"}]},{"type":"error","name":"ERC721InvalidSender","inputs":[{"name":"sender","type":"address","internalType":"address"}]},{"type":"error","name":"ERC721NonexistentToken","inputs":[{"name":"tokenId","type":"uint256","internalType":"uint256"}]},{"type":"error","name":"OwnableInvalidOwner","inputs":[{"name":"owner","type":"address","internalType":"address"}]},{"type":"error","name":"OwnableUnauthorizedAccount","inputs":[{"name":"account","type":"address","internalType":"address"}]}],"bytecode":{"object":"0x608060405234610398576123906020813803918261001c8161039d565b93849283398101031261039857516001600160a01b03811680820361039857610045604061039d565b91600a83526915d9585d1a195c93919560b21b6020840152610067604061039d565b600481526315d3919560e21b602082015283519092906001600160401b0381116102a357600054600181811c9116801561038e575b602082101461028357601f811161032a575b50602094601f82116001146102c4579481929394956000926102b9575b50508160011b916000199060031b1c1916176000555b82516001600160401b0381116102a357600154600181811c91168015610299575b602082101461028357601f811161021e575b506020601f82116001146101b757819293946000926101ac575b50508160011b916000199060031b1c1916176001555b1561019657610152816103c2565b6007546001600160a01b031633036101815761016d906103c2565b6001600855604051611f84908161040c8239f35b63118cdaa760e01b6000523360045260246000fd5b631e4fbdf760e01b600052600060045260246000fd5b01519050388061012e565b601f198216906001600052806000209160005b818110610206575095836001959697106101ed575b505050811b01600155610144565b015160001960f88460031b161c191690553880806101df565b9192602060018192868b0151815501940192016101ca565b60016000527fb10e2d527612073b26eecdfd717e6a320cf44b4afac2b0732d9fcbe2b7fa0cf6601f830160051c81019160208410610279575b601f0160051c01905b81811061026d5750610114565b60008155600101610260565b9091508190610257565b634e487b7160e01b600052602260045260246000fd5b90607f1690610102565b634e487b7160e01b600052604160045260246000fd5b0151905038806100cb565b601f1982169560008052806000209160005b888110610312575083600195969798106102f9575b505050811b016000556100e1565b015160001960f88460031b161c191690553880806102eb565b919260206001819286850151815501940192016102d6565b600080527f290decd9548b62a8d60345a988386fc84ba6bc95484008f6362f93160ef3e563601f830160051c81019160208410610384575b601f0160051c01905b81811061037857506100ae565b6000815560010161036b565b9091508190610362565b90607f169061009c565b600080fd5b6040519190601f01601f191682016001600160401b038111838210176102a357604052565b600780546001600160a01b039283166001600160a01b0319821681179092559091167f8be0079c531659141344cd1fd0a4f28419497f9722a3daafe3b4186f6b6457e0600080a356fe608080604052600436101561001357600080fd5b60003560e01c90816301ffc9a71461141c5750806306fdde0314611377578063081812fc14611339578063095ea7b31461124a57806323b872dd1461123357806342842e0e146112035780636352211e146111d357806370a082311461117d578063715018a614611120578063876e0cb5146110bd5780638da5cb5b1461109457806395d89b4114610fc7578063a22cb46514610f26578063b318034c14610e9d578063b88d4fde14610e32578063bac5c62914610783578063c87b56dd14610750578063d082e38114610732578063d5c2ca6a14610686578063de7f9eb9146101fb578063e985e9c5146101a05763f2fde38b1461011157600080fd5b3461019b57602036600319011261019b5761012a6114e9565b610132611b8b565b6001600160a01b0316801561018557600780546001600160a01b0319811683179091556001600160a01b03167f8be0079c531659141344cd1fd0a4f28419497f9722a3daafe3b4186f6b6457e0600080a3005b631e4fbdf760e01b600052600060045260246000fd5b600080fd5b3461019b57604036600319011261019b576101b96114e9565b6101c16114ff565b9060018060a01b0316600052600560205260406000209060018060a01b0316600052602052602060ff604060002054166040519015158152f35b3461019b5760e036600319011261019b576024356001600160401b03811161019b5761022b903690600401611706565b6044356001600160401b03811161019b5761024a903690600401611706565b906064356001600160401b03811161019b5761026a903690600401611706565b60a43590608435906102906001600160a01b03610288600435611b54565b161515611b11565b6040519461029d86611589565b848652602086018181526040870183815284606089015285608089015260c43560a0890152600435600052600960205260406000209188518051906001600160401b0382116104ea5781906102f2865461154f565b601f8111610633575b50602090601f83116001146105ce576000926105c3575b50508160011b916000199060031b1c19161783555b51805160018401916001600160401b0382116104ea578190610349845461154f565b601f8111610570575b50602090601f831160011461050b57600092610500575b50508160011b916000199060031b1c19161790555b519687516001600160401b0381116104ea5761039d600284015461154f565b601f811161049f575b506020601f82116001146104205761040b989796959493928260059360a0936104139d600092610415575b50508160011b916000199060031b1c19161760028501555b6060810151600385015560808101516004850155015191015560c435946118ba565b600435611ddd565b005b015190508d806103d1565b60028401600052806000209960005b601f19841681106104875750926001836104139c60a09461040b9d9c9b9a999897600597601f1981161061046e575b505050811b0160028501556103e9565b015160001960f88460031b161c191690558d808061045e565b828201518c556001909b019a6020928301920161042f565b600284016000526020600020601f830160051c810191602084106104e0575b601f0160051c01905b8181106104d457506103a6565b600081556001016104c7565b90915081906104be565b634e487b7160e01b600052604160045260246000fd5b015190508b80610369565b60008581528281209350601f198516905b818110610558575090846001959493921061053f575b505050811b01905561037e565b015160001960f88460031b161c191690558b8080610532565b9293602060018192878601518155019501930161051c565b909150836000526020600020601f840160051c810191602085106105b9575b90601f859493920160051c01905b8181106105aa5750610352565b6000815584935060010161059d565b909150819061058f565b015190508b80610312565b60008781528281209350601f198516905b81811061061b5750908460019594939210610602575b505050811b018355610327565b015160001960f88460031b161c191690558b80806105f5565b929360206001819287860151815501950193016105df565b909150856000526020600020601f840160051c8101916020851061067c575b90601f859493920160051c01905b81811061066d57506102fb565b60008155849350600101610660565b9091508190610652565b3461019b57602036600319011261019b576004356106ae6001600160a01b0361028883611b54565b600052600960205260406000206040516106c781611589565b6106d0826115c5565b815261072e6106e1600184016115c5565b91602081019283526106f5600285016115c5565b93846040830152600381015480606084015260056004830154928360808601520154928360a08201525194519560405196879687611669565b0390f35b3461019b57600036600319011261019b576020600854604051908152f35b3461019b57602036600319011261019b5761072e61076f600435611ade565b6040519182916020835260208301906114c4565b3461019b5760e036600319011261019b5761079c6114e9565b6024356001600160401b03811161019b576107bb903690600401611706565b906044356001600160401b03811161019b576107db903690600401611706565b6064356001600160401b03811161019b576107fa903690600401611706565b92610803611b8b565b6008549260209060405161081783826115a4565b600081526001600160a01b038216918215610e1c5760008781526002855260018060a01b036040822054168885827fddf252ad1be2c89b69c2b068fc378daa952ba7f163c4a11628f55a4df523b3ef8115159586610de8575b83815260038b5260408082208054600101905585825260028c52812080546001600160a01b0319168517905580a450610dd2573b610ca8575b50506040516108b781611589565b82815281810191848352866040830152608435606083015260a435608083015260c43560a0830152856000526009815260406000209282518051906001600160401b0382116104ea57819061090c875461154f565b601f8111610c57575b508490601f8311600114610bf257600092610be7575b50508160011b916000199060031b1c19161784555b518051906001600160401b0382116104ea578190610961600187015461154f565b601f8111610b93575b508390601f8311600114610b2257600092610b17575b50508160011b916000199060031b1c19161760018401555b6040820151908151916001600160401b0383116104ea576109bc600286015461154f565b601f8111610ad2575b5081601f8411600114610a515750610a3698959383610a3098969460059460a094600092610a46575b50508160011b916000199060031b1c19161760028501555b6060810151600385015560808101516004850155015191015560c4359260a43592608435926118ba565b90611ddd565b610a41600854611ab9565b600855005b015190508c806109ee565b91906002860160005282600020926000905b601f1986168210610aba5750509360018460059460a094610a369d9a98610a309c9a98601f19811610610aa1575b505050811b016002850155610a06565b015160001960f88460031b161c191690558c8080610a91565b80600185968294968601518155019501930190610a63565b6002860160005282600020601f850160051c8101848610610b10575b601f830160051c82018110610b045750506109c5565b60008155600101610aee565b5080610aee565b015190508980610980565b92506001860160005283600020906000935b85601f1985168610610b7a57506001945083601f19811610610b61575b505050811b016001840155610998565b015160001960f88460031b161c19169055898080610b51565b8282015184559485019460019093019290910190610b34565b9091506001860160005283600020601f840160051c810191858510610bdd575b90601f859493920160051c01905b818110610bce575061096a565b60008155849350600101610bc1565b9091508190610bb3565b015190508a8061092b565b60008881528681209350601f198516905b87828210610c41575050908460019594939210610c28575b505050811b018455610940565b015160001960f88460031b161c191690558a8080610c1b565b6001859682939686015181550195019301610c03565b9091508660005284600020601f840160051c810191868510610c9e575b90601f859493920160051c01905b818110610c8f5750610915565b60008155849350600101610c82565b9091508190610c74565b82610ce9916040989694979593985180938192630a85bd0160e11b8352336004840152600060248401528860448401526080606484015260848301906114c4565b038160008b5af18091600091610d8d575b5090610d515786863d15610d4a573d610d12816116b4565b90610d2060405192836115a4565b81523d60008383013e5b80519182610d475783633250574960e11b60005260045260246000fd5b01fd5b6060610d2a565b9395929491939092906001600160e01b03191663757a42ff60e11b01610d79575085806108a9565b633250574960e11b60005260045260246000fd5b8781813d8311610dcb575b610da281836115a4565b81010312610dc75751906001600160e01b031982168203610dc4575088610cfa565b80fd5b5080fd5b503d610d98565b6339e3563760e11b600052600060045260246000fd5b600085815260046020526040902080546001600160a01b031916905582815260038b52604081208054600019019055610870565b633250574960e11b600052600060045260246000fd5b3461019b57608036600319011261019b57610e4b6114e9565b610e536114ff565b90604435606435926001600160401b03841161019b573660238501121561019b57610e8b6104139436906024816004013591016116cf565b92610e97838383611724565b33611cb4565b3461019b5760c036600319011261019b576004356001600160401b03811161019b57610ecd903690600401611706565b6024356001600160401b03811161019b57610eec903690600401611706565b90604435906001600160401b03821161019b5761072e92610f1461076f933690600401611706565b9160a4359260843592606435926118ba565b3461019b57604036600319011261019b57610f3f6114e9565b6024359081151580920361019b576001600160a01b0316908115610fb257336000526005602052604060002082600052602052604060002060ff1981541660ff83161790556040519081527f17307eab39ab6107e8899845ad3d59bd9653f200f220920489ca2b5937696c3160203392a3005b50630b61174360e31b60005260045260246000fd5b3461019b57600036600319011261019b576040516000600154610fe98161154f565b80845290600181169081156110705750600114611011575b61072e8361076f818503826115a4565b600160009081527fb10e2d527612073b26eecdfd717e6a320cf44b4afac2b0732d9fcbe2b7fa0cf6939250905b8082106110565750909150810160200161076f611001565b91926001816020925483858801015201910190929161103e565b60ff191660208086019190915291151560051b8401909101915061076f9050611001565b3461019b57600036600319011261019b576007546040516001600160a01b039091168152602090f35b3461019b57602036600319011261019b57600435600052600960205260406000206110e7816115c5565b61072e6110f6600184016115c5565b92611103600282016115c5565b906003810154600560048301549201549260405196879687611669565b3461019b57600036600319011261019b57611139611b8b565b600780546001600160a01b031981169091556000906001600160a01b03167f8be0079c531659141344cd1fd0a4f28419497f9722a3daafe3b4186f6b6457e08280a3005b3461019b57602036600319011261019b576001600160a01b0361119e6114e9565b1680156111bd5760005260036020526020604060002054604051908152f35b6322718ad960e21b600052600060045260246000fd5b3461019b57602036600319011261019b5760206111f1600435611b54565b6040516001600160a01b039091168152f35b3461019b5761041361121436611515565b90604051926112246020856115a4565b60008452610e97838383611724565b3461019b5761041361124436611515565b91611724565b3461019b57604036600319011261019b576112636114e9565b60243561126f81611b54565b33151580611326575b806112f8575b6112e35781906001600160a01b0384811691167f8c5be1e5ebec7d5bd14f71427d1e84f3dd0314c0f7b2291e5b200ac8c7c3b925600080a4600090815260046020526040902080546001600160a01b0319166001600160a01b03909216919091179055005b63a9fbf51f60e01b6000523360045260246000fd5b506001600160a01b038116600090815260056020908152604080832033845290915290205460ff161561127e565b506001600160a01b038116331415611278565b3461019b57602036600319011261019b5760043561135681611b54565b506000526004602052602060018060a01b0360406000205416604051908152f35b3461019b57600036600319011261019b57604051600080546113988161154f565b808452906001811690811561107057506001146113bf5761072e8361076f818503826115a4565b60008080527f290decd9548b62a8d60345a988386fc84ba6bc95484008f6362f93160ef3e563939250905b8082106114025750909150810160200161076f611001565b9192600181602092548385880101520191019092916113ea565b3461019b57602036600319011261019b576004359063ffffffff60e01b821680920361019b57602091632483248360e11b811490811561145e575b5015158152f35b6380ac58cd60e01b811491508115611490575b811561147f575b5083611457565b6301ffc9a760e01b14905083611478565b635b5e139f60e01b81149150611471565b60005b8381106114b45750506000910152565b81810151838201526020016114a4565b906020916114dd815180928185528580860191016114a1565b601f01601f1916010190565b600435906001600160a01b038216820361019b57565b602435906001600160a01b038216820361019b57565b606090600319011261019b576004356001600160a01b038116810361019b57906024356001600160a01b038116810361019b579060443590565b90600182811c9216801561157f575b602083101461156957565b634e487b7160e01b600052602260045260246000fd5b91607f169161155e565b60c081019081106001600160401b038211176104ea57604052565b90601f801991011681019081106001600160401b038211176104ea57604052565b90604051918260008254926115d98461154f565b80845293600181169081156116475750600114611600575b506115fe925003836115a4565b565b90506000929192526020600020906000915b81831061162b5750509060206115fe92820101386115f1565b6020919350806001915483858901015201910190918492611612565b9050602092506115fe94915060ff191682840152151560051b820101386115f1565b9261169760a095989796936116896116a59460c0885260c08801906114c4565b9086820360208801526114c4565b9084820360408601526114c4565b95606083015260808201520152565b6001600160401b0381116104ea57601f01601f191660200190565b9291926116db826116b4565b916116e960405193846115a4565b82948184528183011161019b578281602093846000960137010152565b9080601f8301121561019b57816020611721933591016116cf565b90565b6001600160a01b0390911691908215610e1c576000828152600260205260408120546001600160a01b0316938391859033151580611822575b507fddf252ad1be2c89b69c2b068fc378daa952ba7f163c4a11628f55a4df523b3ef90826117ed575b83815260036020526040812060018154019055848152600260205260408120846bffffffffffffffffffffffff60a01b82541617905580a46001600160a01b03168083036117d357505050565b6364283d7b60e01b60005260045260245260445260646000fd5b600085815260046020526040902080546001600160a01b03191690558281526003602052604081208054600019019055611786565b91509192508061186b575b1561183c57908484923861175d565b83908561185557602491637e27328960e01b8252600452fd5b60449163177e802f60e01b825233600452602452fd5b503385148015611899575b8061182d5750838152600460205260408120546001600160a01b0316331461182d565b5084815260056020908152604080832033845290915281205460ff16611876565b93909491926118c890611bb4565b906118d290611bb4565b916118dc90611bb4565b92604051958695683d913730b6b2911d1160b91b60208801528051908160298901916020019161190b926114a1565b860171111610113232b9b1b934b83a34b7b7111d1160711b602982015281519182603b8301916020019161193e926114a1565b016029016b1116101134b6b0b3b2911d1160a11b601282015281519182601e8301916020019161196d926114a1565b0160120170222c202261747472696275746573223a5b60781b600c820152601d81017f7b2274726169745f74797065223a2248756d6964697479222c2276616c7565229052603d8101601d60f91b905281519182603e830191602001916119d3926114a1565b01600c0160328101611f4b60f21b9052603481017f7b2274726169745f74797065223a2257696e64205370656564222c2276616c7590526232911d60e91b605482015281519182605783019160200191611a2c926114a1565b0160320160258101611f4b60f21b9052602781017f7b2274726169745f74797065223a2254656d7065726174757265222c2276616c9052633ab2911d60e11b604782015281519182604b83019160200191611a86926114a1565b0160250160268101607d60f81b905260278101615d7d60f01b905203602601601c198101825260030161172190826115a4565b6000198114611ac85760010190565b634e487b7160e01b600052601160045260246000fd5b611ae781611b54565b506000526006602052611afd60406000206115c5565b6000604051611b0d6020826115a4565b5290565b15611b1857565b60405162461bcd60e51b8152602060048201526014602482015273151bdad95b88191bd95cc81b9bdd08195e1a5cdd60621b6044820152606490fd5b6000818152600260205260409020546001600160a01b0316908115611b77575090565b637e27328960e01b60005260045260246000fd5b6007546001600160a01b03163303611b9f57565b63118cdaa760e01b6000523360045260246000fd5b908115611c93579080816000925b611c795750611bd0826116b4565b91611bde60405193846115a4565b808352601f19611bed826116b4565b01366020850137905b818115611c73576000198301928311611ac85782600a830492600a8402848104600a1485151715611ac8578103908111611ac85760ff166030019060ff8211611ac85785511115611c5d5760f81b6001600160f81b03191660001a908401601f0153611bf6565b634e487b7160e01b600052603260045260246000fd5b50505090565b91611c88600a91949294611ab9565b920480939193611bc2565b9050604051611ca36040826115a4565b60018152600360fc1b602082015290565b823b611cc2575b5050505050565b604051630a85bd0160e11b81526001600160a01b039182166004820152918116602483015260448201939093526080606482015291169160209082908190611d0e9060848301906114c4565b03816000865af18091600091611d9a575b5090611d7857503d15611d71573d611d36816116b4565b90611d4460405192836115a4565b81523d6000602083013e5b80519081611d6c5782633250574960e11b60005260045260246000fd5b602001fd5b6060611d4f565b6001600160e01b03191663757a42ff60e11b01610d7957503880808080611cbb565b6020813d602011611dd5575b81611db3602093836115a4565b81010312610dc75751906001600160e01b031982168203610dc4575038611d1f565b3d9150611da6565b919091806000526006602052604060002083516001600160401b0381116104ea57611e08825461154f565b601f8111611f06575b506020601f8211600114611e7a57908060209493927ff8e1a15aba9398e019f0b49df1a4fde98ee17ae345cb5f6b5e2c27f5033e8ce79697600092611e6f575b50508160011b916000199060031b1c19161790555b604051908152a1565b015190503880611e51565b601f1982169583600052816000209660005b818110611eee575096600192849260209796957ff8e1a15aba9398e019f0b49df1a4fde98ee17ae345cb5f6b5e2c27f5033e8ce7999a10611ed5575b505050811b019055611e66565b015160001960f88460031b161c19169055388080611ec8565b83830151895560019098019760209384019301611e8c565b826000526020600020601f830160051c81019160208410611f44575b601f0160051c01905b818110611f385750611e11565b60008155600101611f2b565b9091508190611f2256fea2646970667358221220075c9c0ef78f97c906f82e5d5c36796578d2294f49bcd36ccef72de940305a7e64736f6c634300081a0033","linkReferences":{}},"methodIdentifiers":{"approve(address,uint256)":"095ea7b3","balanceOf(address)":"70a08231","generateTokenURI(string,string,string,uint256,uint256,uint256)":"b318034c","getApproved(uint256)":"081812fc","getWeatherData(uint256)":"d5c2ca6a","isApprovedForAll(address,address)":"e985e9c5","mintWeatherNFT(address,string,string,string,uint256,uint256,uint256)":"bac5c629","name()":"06fdde03","owner()":"8da5cb5b","ownerOf(uint256)":"6352211e","renounceOwnership()":"715018a6","safeTransferFrom(address,address,uint256)":"42842e0e","safeTransferFrom(address,address,uint256,bytes)":"b88d4fde","setApprovalForAll(address,bool)":"a22cb465","supportsInterface(bytes4)":"01ffc9a7","symbol()":"95d89b41","tokenCounter()":"d082e381","tokenURI(uint256)":"c87b56dd","transferFrom(address,address,uint256)":"23b872dd","transferOwnership(address)":"f2fde38b","updateWeatherData(uint256,string,string,string,uint256,uint256,uint256)":"de7f9eb9","weatherData(uint256)":"876e0cb5"},"id":39}