{"abi":[{"type":"constructor","inputs":[{"name":"initialOwner","type":"address","internalType":"address"}],"stateMutability":"nonpayable"},{"type":"function","name":"approve","inputs":[{"name":"to","type":"address","internalType":"address"},{"name":"tokenId","type":"uint256","internalType":"uint256"}],"outputs":[],"stateMutability":"nonpayable"},{"type":"function","name":"balanceOf","inputs":[{"name":"owner","type":"address","internalType":"address"}],"outputs":[{"name":"","type":"uint256","internalType":"uint256"}],"stateMutability":"view"},{"type":"function","name":"generateTokenURI","inputs":[{"name":"name","type":"string","internalType":"string"},{"name":"description","type":"string","internalType":"string"},{"name":"image","type":"string","internalType":"string"},{"name":"humidity","type":"uint256","internalType":"uint256"},{"name":"windSpeed","type":"uint256","internalType":"uint256"}],"outputs":[{"name":"","type":"string","internalType":"string"}],"stateMutability":"pure"},{"type":"function","name":"getApproved","inputs":[{"name":"tokenId","type":"uint256","internalType":"uint256"}],"outputs":[{"name":"","type":"address","internalType":"address"}],"stateMutability":"view"},{"type":"function","name":"getWeatherData","inputs":[{"name":"tokenId","type":"uint256","internalType":"uint256"}],"outputs":[{"name":"","type":"string","internalType":"string"},{"name":"","type":"string","internalType":"string"},{"name":"","type":"string","internalType":"string"},{"name":"","type":"uint256","internalType":"uint256"},{"name":"","type":"uint256","internalType":"uint256"}],"stateMutability":"view"},{"type":"function","name":"isApprovedForAll","inputs":[{"name":"owner","type":"address","internalType":"address"},{"name":"operator","type":"address","internalType":"address"}],"outputs":[{"name":"","type":"bool","internalType":"bool"}],"stateMutability":"view"},{"type":"function","name":"mintWeatherNFT","inputs":[{"name":"to","type":"address","internalType":"address"},{"name":"name","type":"string","internalType":"string"},{"name":"description","type":"string","internalType":"string"},{"name":"image","type":"string","internalType":"string"},{"name":"humidity","type":"uint256","internalType":"uint256"},{"name":"windSpeed","type":"uint256","internalType":"uint256"}],"outputs":[],"stateMutability":"nonpayable"},{"type":"function","name":"name","inputs":[],"outputs":[{"name":"","type":"string","internalType":"string"}],"stateMutability":"view"},{"type":"function","name":"owner","inputs":[],"outputs":[{"name":"","type":"address","internalType":"address"}],"stateMutability":"view"},{"type":"function","name":"ownerOf","inputs":[{"name":"tokenId","type":"uint256","internalType":"uint256"}],"outputs":[{"name":"","type":"address","internalType":"address"}],"stateMutability":"view"},{"type":"function","name":"renounceOwnership","inputs":[],"outputs":[],"stateMutability":"nonpayable"},{"type":"function","name":"safeTransferFrom","inputs":[{"name":"from","type":"address","internalType":"address"},{"name":"to","type":"address","internalType":"address"},{"name":"tokenId","type":"uint256","internalType":"uint256"}],"outputs":[],"stateMutability":"nonpayable"},{"type":"function","name":"safeTransferFrom","inputs":[{"name":"from","type":"address","internalType":"address"},{"name":"to","type":"address","internalType":"address"},{"name":"tokenId","type":"uint256","internalType":"uint256"},{"name":"data","type":"bytes","internalType":"bytes"}],"outputs":[],"stateMutability":"nonpayable"},{"type":"function","name":"setApprovalForAll","inputs":[{"name":"operator","type":"address","internalType":"address"},{"name":"approved","type":"bool","internalType":"bool"}],"outputs":[],"stateMutability":"nonpayable"},{"type":"function","name":"supportsInterface","inputs":[{"name":"interfaceId","type":"bytes4","internalType":"bytes4"}],"outputs":[{"name":"","type":"bool","internalType":"bool"}],"stateMutability":"view"},{"type":"function","name":"symbol","inputs":[],"outputs":[{"name":"","type":"string","internalType":"string"}],"stateMutability":"view"},{"type":"function","name":"tokenCounter","inputs":[],"outputs":[{"name":"","type":"uint256","internalType":"uint256"}],"stateMutability":"view"},{"type":"function","name":"tokenURI","inputs":[{"name":"tokenId","type":"uint256","internalType":"uint256"}],"outputs":[{"name":"","type":"string","internalType":"string"}],"stateMutability":"view"},{"type":"function","name":"transferFrom","inputs":[{"name":"from","type":"address","internalType":"address"},{"name":"to","type":"address","internalType":"address"},{"name":"tokenId","type":"uint256","internalType":"uint256"}],"outputs":[],"stateMutability":"nonpayable"},{"type":"function","name":"transferOwnership","inputs":[{"name":"newOwner","type":"address","internalType":"address"}],"outputs":[],"stateMutability":"nonpayable"},{"type":"function","name":"weatherData","inputs":[{"name":"","type":"uint256","internalType":"uint256"}],"outputs":[{"name":"name","type":"string","internalType":"string"},{"name":"description","type":"string","internalType":"string"},{"name":"image","type":"string","internalType":"string"},{"name":"humidity","type":"uint256","internalType":"uint256"},{"name":"windSpeed","type":"uint256","internalType":"uint256"}],"stateMutability":"view"},{"type":"event","name":"Approval","inputs":[{"name":"owner","type":"address","indexed":true,"internalType":"address"},{"name":"approved","type":"address","indexed":true,"internalType":"address"},{"name":"tokenId","type":"uint256","indexed":true,"internalType":"uint256"}],"anonymous":false},{"type":"event","name":"ApprovalForAll","inputs":[{"name":"owner","type":"address","indexed":true,"internalType":"address"},{"name":"operator","type":"address","indexed":true,"internalType":"address"},{"name":"approved","type":"bool","indexed":false,"internalType":"bool"}],"anonymous":false},{"type":"event","name":"BatchMetadataUpdate","inputs":[{"name":"_fromTokenId","type":"uint256","indexed":false,"internalType":"uint256"},{"name":"_toTokenId","type":"uint256","indexed":false,"internalType":"uint256"}],"anonymous":false},{"type":"event","name":"MetadataUpdate","inputs":[{"name":"_tokenId","type":"uint256","indexed":false,"internalType":"uint256"}],"anonymous":false},{"type":"event","name":"OwnershipTransferred","inputs":[{"name":"previousOwner","type":"address","indexed":true,"internalType":"address"},{"name":"newOwner","type":"address","indexed":true,"internalType":"address"}],"anonymous":false},{"type":"event","name":"Transfer","inputs":[{"name":"from","type":"address","indexed":true,"internalType":"address"},{"name":"to","type":"address","indexed":true,"internalType":"address"},{"name":"tokenId","type":"uint256","indexed":true,"internalType":"uint256"}],"anonymous":false},{"type":"error","name":"ERC721IncorrectOwner","inputs":[{"name":"sender","type":"address","internalType":"address"},{"name":"tokenId","type":"uint256","internalType":"uint256"},{"name":"owner","type":"address","internalType":"address"}]},{"type":"error","name":"ERC721InsufficientApproval","inputs":[{"name":"operator","type":"address","internalType":"address"},{"name":"tokenId","type":"uint256","internalType":"uint256"}]},{"type":"error","name":"ERC721InvalidApprover","inputs":[{"name":"approver","type":"address","internalType":"address"}]},{"type":"error","name":"ERC721InvalidOperator","inputs":[{"name":"operator","type":"address","internalType":"address"}]},{"type":"error","name":"ERC721InvalidOwner","inputs":[{"name":"owner","type":"address","internalType":"address"}]},{"type":"error","name":"ERC721InvalidReceiver","inputs":[{"name":"receiver","type":"address","internalType":"address"}]},{"type":"error","name":"ERC721InvalidSender","inputs":[{"name":"sender","type":"address","internalType":"address"}]},{"type":"error","name":"ERC721NonexistentToken","inputs":[{"name":"tokenId","type":"uint256","internalType":"uint256"}]},{"type":"error","name":"OwnableInvalidOwner","inputs":[{"name":"owner","type":"address","internalType":"address"}]},{"type":"error","name":"OwnableUnauthorizedAccount","inputs":[{"name":"account","type":"address","internalType":"address"}]}],"bytecode":{"object":"0x608060405234801561001057600080fd5b5060405161219c38038061219c83398101604081905261002f9161019b565b806040518060400160405280600a81526020016915d9585d1a195c93919560b21b8152506040518060400160405280600481526020016315d3919560e21b815250816000908161007f919061026c565b50600161008c828261026c565b5050506001600160a01b0381166100be57604051631e4fbdf760e01b8152600060048201526024015b60405180910390fd5b6100c7816100dc565b506100d18161012e565b50600160085561032b565b600780546001600160a01b038381166001600160a01b0319831681179093556040519116919082907f8be0079c531659141344cd1fd0a4f28419497f9722a3daafe3b4186f6b6457e090600090a35050565b61013661016c565b6001600160a01b03811661016057604051631e4fbdf760e01b8152600060048201526024016100b5565b610169816100dc565b50565b6007546001600160a01b031633146101995760405163118cdaa760e01b81523360048201526024016100b5565b565b6000602082840312156101ad57600080fd5b81516001600160a01b03811681146101c457600080fd5b9392505050565b634e487b7160e01b600052604160045260246000fd5b600181811c908216806101f557607f821691505b60208210810361021557634e487b7160e01b600052602260045260246000fd5b50919050565b601f821115610267576000816000526020600020601f850160051c810160208610156102445750805b601f850160051c820191505b8181101561026357828155600101610250565b5050505b505050565b81516001600160401b03811115610285576102856101cb565b6102998161029384546101e1565b8461021b565b602080601f8311600181146102ce57600084156102b65750858301515b600019600386901b1c1916600185901b178555610263565b600085815260208120601f198616915b828110156102fd578886015182559484019460019091019084016102de565b508582101561031b5787850151600019600388901b60f8161c191681555b5050505050600190811b01905550565b611e628061033a6000396000f3fe608060405234801561001057600080fd5b50600436106101375760003560e01c80638da5cb5b116100b8578063c87b56dd1161007c578063c87b56dd14610291578063cebc32c4146102a4578063d082e381146102b7578063d5c2ca6a146102c0578063e985e9c5146102d3578063f2fde38b146102e657600080fd5b80638da5cb5b1461023f57806393b001371461025057806395d89b4114610263578063a22cb4651461026b578063b88d4fde1461027e57600080fd5b806342842e0e116100ff57806342842e0e146101cc5780636352211e146101df57806370a08231146101f2578063715018a614610213578063876e0cb51461021b57600080fd5b806301ffc9a71461013c57806306fdde0314610164578063081812fc14610179578063095ea7b3146101a457806323b872dd146101b9575b600080fd5b61014f61014a3660046115fa565b6102f9565b60405190151581526020015b60405180910390f35b61016c610324565b60405161015b9190611667565b61018c61018736600461167a565b6103b6565b6040516001600160a01b03909116815260200161015b565b6101b76101b23660046116af565b6103df565b005b6101b76101c73660046116d9565b6103ee565b6101b76101da3660046116d9565b61047e565b61018c6101ed36600461167a565b61049e565b610205610200366004611715565b6104a9565b60405190815260200161015b565b6101b76104f1565b61022e61022936600461167a565b610505565b60405161015b959493929190611730565b6007546001600160a01b031661018c565b61016c61025e36600461182a565b6106cb565b61016c610710565b6101b76102793660046118c4565b61071f565b6101b761028c366004611900565b61072a565b61016c61029f36600461167a565b610742565b6101b76102b236600461197c565b610878565b61020560085481565b61022e6102ce36600461167a565b61094d565b61014f6102e1366004611a27565b610bbb565b6101b76102f4366004611715565b610be9565b60006001600160e01b03198216632483248360e11b148061031e575061031e82610c27565b92915050565b60606000805461033390611a5a565b80601f016020809104026020016040519081016040528092919081815260200182805461035f90611a5a565b80156103ac5780601f10610381576101008083540402835291602001916103ac565b820191906000526020600020905b81548152906001019060200180831161038f57829003601f168201915b5050505050905090565b60006103c182610c77565b506000828152600460205260409020546001600160a01b031661031e565b6103ea828233610cb0565b5050565b6001600160a01b03821661041d57604051633250574960e11b8152600060048201526024015b60405180910390fd5b600061042a838333610cbd565b9050836001600160a01b0316816001600160a01b031614610478576040516364283d7b60e01b81526001600160a01b0380861660048301526024820184905282166044820152606401610414565b50505050565b6104998383836040518060200160405280600081525061072a565b505050565b600061031e82610c77565b60006001600160a01b0382166104d5576040516322718ad960e21b815260006004820152602401610414565b506001600160a01b031660009081526003602052604090205490565b6104f9610db6565b6105036000610de3565b565b60096020526000908152604090208054819061052090611a5a565b80601f016020809104026020016040519081016040528092919081815260200182805461054c90611a5a565b80156105995780601f1061056e57610100808354040283529160200191610599565b820191906000526020600020905b81548152906001019060200180831161057c57829003601f168201915b5050505050908060010180546105ae90611a5a565b80601f01602080910402602001604051908101604052809291908181526020018280546105da90611a5a565b80156106275780601f106105fc57610100808354040283529160200191610627565b820191906000526020600020905b81548152906001019060200180831161060a57829003601f168201915b50505050509080600201805461063c90611a5a565b80601f016020809104026020016040519081016040528092919081815260200182805461066890611a5a565b80156106b55780601f1061068a576101008083540402835291602001916106b5565b820191906000526020600020905b81548152906001019060200180831161069857829003601f168201915b5050505050908060030154908060040154905085565b60608585856106d986610e35565b6106e286610e35565b6040516020016106f6959493929190611ab0565b604051602081830303815290604052905095945050505050565b60606001805461033390611a5a565b6103ea338383610f61565b6107358484846103ee565b6104783385858585611000565b606061074d82610c77565b506000828152600660205260408120805461076790611a5a565b80601f016020809104026020016040519081016040528092919081815260200182805461079390611a5a565b80156107e05780601f106107b5576101008083540402835291602001916107e0565b820191906000526020600020905b8154815290600101906020018083116107c357829003601f168201915b50505050509050600061082360408051808201909152601d81527f68747470733a2f2f6578616d706c652d626173652d7572692e636f6d2f000000602082015290565b90508051600003610835575092915050565b81511561086757808260405160200161084f929190611bf1565b60405160208183030381529060405292505050919050565b6108708461112b565b949350505050565b610880610db6565b60085461088d87826111c5565b6040805160a081018252878152602080820188905281830187905260608201869052608082018590526000848152600990915291909120815181906108d29082611c68565b50602082015160018201906108e79082611c68565b50604082015160028201906108fc9082611c68565b5060608201516003820155608090910151600490910155600061092287878787876106cb565b905061092e82826111df565b6008805490600061093e83611d3e565b91905055505050505050505050565b606080806000808061095e8761049e565b6001600160a01b0316036109ab5760405162461bcd60e51b8152602060048201526014602482015273151bdad95b88191bd95cc81b9bdd08195e1a5cdd60621b6044820152606401610414565b600086815260096020526040808220815160a081019092528054829082906109d290611a5a565b80601f01602080910402602001604051908101604052809291908181526020018280546109fe90611a5a565b8015610a4b5780601f10610a2057610100808354040283529160200191610a4b565b820191906000526020600020905b815481529060010190602001808311610a2e57829003601f168201915b50505050508152602001600182018054610a6490611a5a565b80601f0160208091040260200160405190810160405280929190818152602001828054610a9090611a5a565b8015610add5780601f10610ab257610100808354040283529160200191610add565b820191906000526020600020905b815481529060010190602001808311610ac057829003601f168201915b50505050508152602001600282018054610af690611a5a565b80601f0160208091040260200160405190810160405280929190818152602001828054610b2290611a5a565b8015610b6f5780601f10610b4457610100808354040283529160200191610b6f565b820191906000526020600020905b815481529060010190602001808311610b5257829003601f168201915b5050505050815260200160038201548152602001600482015481525050905080600001518160200151826040015183606001518460800151955095509550955095505091939590929450565b6001600160a01b03918216600090815260056020908152604080832093909416825291909152205460ff1690565b610bf1610db6565b6001600160a01b038116610c1b57604051631e4fbdf760e01b815260006004820152602401610414565b610c2481610de3565b50565b60006001600160e01b031982166380ac58cd60e01b1480610c5857506001600160e01b03198216635b5e139f60e01b145b8061031e57506301ffc9a760e01b6001600160e01b031983161461031e565b6000818152600260205260408120546001600160a01b03168061031e57604051637e27328960e01b815260048101849052602401610414565b610499838383600161122f565b6000828152600260205260408120546001600160a01b0390811690831615610cea57610cea818486611335565b6001600160a01b03811615610d2857610d0760008560008061122f565b6001600160a01b038116600090815260036020526040902080546000190190555b6001600160a01b03851615610d57576001600160a01b0385166000908152600360205260409020805460010190555b60008481526002602052604080822080546001600160a01b0319166001600160a01b0389811691821790925591518793918516917fddf252ad1be2c89b69c2b068fc378daa952ba7f163c4a11628f55a4df523b3ef91a4949350505050565b6007546001600160a01b031633146105035760405163118cdaa760e01b8152336004820152602401610414565b600780546001600160a01b038381166001600160a01b0319831681179093556040519116919082907f8be0079c531659141344cd1fd0a4f28419497f9722a3daafe3b4186f6b6457e090600090a35050565b606081600003610e5c5750506040805180820190915260018152600360fc1b602082015290565b8160005b8115610e865780610e7081611d3e565b9150610e7f9050600a83611d57565b9150610e60565b60008167ffffffffffffffff811115610ea157610ea161177e565b6040519080825280601f01601f191660200182016040528015610ecb576020820181803683370190505b509050815b8515610f5857610ee1600182611d79565b90506000610ef0600a88611d57565b610efb90600a611d8c565b610f059088611d79565b610f10906030611da3565b905060008160f81b905080848481518110610f2d57610f2d611dbc565b60200101906001600160f81b031916908160001a905350610f4f600a89611d57565b97505050610ed0565b50949350505050565b6001600160a01b038216610f9357604051630b61174360e31b81526001600160a01b0383166004820152602401610414565b6001600160a01b03838116600081815260056020908152604080832094871680845294825291829020805460ff191686151590811790915591519182527f17307eab39ab6107e8899845ad3d59bd9653f200f220920489ca2b5937696c31910160405180910390a3505050565b6001600160a01b0383163b1561112457604051630a85bd0160e11b81526001600160a01b0384169063150b7a0290611042908890889087908790600401611dd2565b6020604051808303816000875af192505050801561107d575060408051601f3d908101601f1916820190925261107a91810190611e0f565b60015b6110e6573d8080156110ab576040519150601f19603f3d011682016040523d82523d6000602084013e6110b0565b606091505b5080516000036110de57604051633250574960e11b81526001600160a01b0385166004820152602401610414565b805181602001fd5b6001600160e01b03198116630a85bd0160e11b1461112257604051633250574960e11b81526001600160a01b0385166004820152602401610414565b505b5050505050565b606061113682610c77565b50600061117360408051808201909152601d81527f68747470733a2f2f6578616d706c652d626173652d7572692e636f6d2f000000602082015290565b9050600081511161119357604051806020016040528060008152506111be565b8061119d84611399565b6040516020016111ae929190611bf1565b6040516020818303038152906040525b9392505050565b6103ea82826040518060200160405280600081525061142c565b60008281526006602052604090206111f78282611c68565b506040518281527ff8e1a15aba9398e019f0b49df1a4fde98ee17ae345cb5f6b5e2c27f5033e8ce79060200160405180910390a15050565b808061124357506001600160a01b03821615155b1561130557600061125384610c77565b90506001600160a01b0383161580159061127f5750826001600160a01b0316816001600160a01b031614155b801561129257506112908184610bbb565b155b156112bb5760405163a9fbf51f60e01b81526001600160a01b0384166004820152602401610414565b81156113035783856001600160a01b0316826001600160a01b03167f8c5be1e5ebec7d5bd14f71427d1e84f3dd0314c0f7b2291e5b200ac8c7c3b92560405160405180910390a45b505b5050600090815260046020526040902080546001600160a01b0319166001600160a01b0392909216919091179055565b611340838383611444565b610499576001600160a01b03831661136e57604051637e27328960e01b815260048101829052602401610414565b60405163177e802f60e01b81526001600160a01b038316600482015260248101829052604401610414565b606060006113a6836114a7565b600101905060008167ffffffffffffffff8111156113c6576113c661177e565b6040519080825280601f01601f1916602001820160405280156113f0576020820181803683370190505b5090508181016020015b600019016f181899199a1a9b1b9c1cb0b131b232b360811b600a86061a8153600a85049450846113fa57509392505050565b611436838361157f565b610499336000858585611000565b60006001600160a01b038316158015906108705750826001600160a01b0316846001600160a01b0316148061147e575061147e8484610bbb565b806108705750506000908152600460205260409020546001600160a01b03908116911614919050565b60008072184f03e93ff9f4daa797ed6e38ed64bf6a1f0160401b83106114e65772184f03e93ff9f4daa797ed6e38ed64bf6a1f0160401b830492506040015b6d04ee2d6d415b85acef81000000008310611512576d04ee2d6d415b85acef8100000000830492506020015b662386f26fc10000831061153057662386f26fc10000830492506010015b6305f5e1008310611548576305f5e100830492506008015b612710831061155c57612710830492506004015b6064831061156e576064830492506002015b600a831061031e5760010192915050565b6001600160a01b0382166115a957604051633250574960e11b815260006004820152602401610414565b60006115b783836000610cbd565b90506001600160a01b03811615610499576040516339e3563760e11b815260006004820152602401610414565b6001600160e01b031981168114610c2457600080fd5b60006020828403121561160c57600080fd5b81356111be816115e4565b60005b8381101561163257818101518382015260200161161a565b50506000910152565b60008151808452611653816020860160208601611617565b601f01601f19169290920160200192915050565b6020815260006111be602083018461163b565b60006020828403121561168c57600080fd5b5035919050565b80356001600160a01b03811681146116aa57600080fd5b919050565b600080604083850312156116c257600080fd5b6116cb83611693565b946020939093013593505050565b6000806000606084860312156116ee57600080fd5b6116f784611693565b925061170560208501611693565b9150604084013590509250925092565b60006020828403121561172757600080fd5b6111be82611693565b60a08152600061174360a083018861163b565b8281036020840152611755818861163b565b90508281036040840152611769818761163b565b60608401959095525050608001529392505050565b634e487b7160e01b600052604160045260246000fd5b600067ffffffffffffffff808411156117af576117af61177e565b604051601f8501601f19908116603f011681019082821181831017156117d7576117d761177e565b816040528093508581528686860111156117f057600080fd5b858560208301376000602087830101525050509392505050565b600082601f83011261181b57600080fd5b6111be83833560208501611794565b600080600080600060a0868803121561184257600080fd5b853567ffffffffffffffff8082111561185a57600080fd5b61186689838a0161180a565b9650602088013591508082111561187c57600080fd5b61188889838a0161180a565b9550604088013591508082111561189e57600080fd5b506118ab8882890161180a565b9598949750949560608101359550608001359392505050565b600080604083850312156118d757600080fd5b6118e083611693565b9150602083013580151581146118f557600080fd5b809150509250929050565b6000806000806080858703121561191657600080fd5b61191f85611693565b935061192d60208601611693565b925060408501359150606085013567ffffffffffffffff81111561195057600080fd5b8501601f8101871361196157600080fd5b61197087823560208401611794565b91505092959194509250565b60008060008060008060c0878903121561199557600080fd5b61199e87611693565b9550602087013567ffffffffffffffff808211156119bb57600080fd5b6119c78a838b0161180a565b965060408901359150808211156119dd57600080fd5b6119e98a838b0161180a565b955060608901359150808211156119ff57600080fd5b50611a0c89828a0161180a565b9350506080870135915060a087013590509295509295509295565b60008060408385031215611a3a57600080fd5b611a4383611693565b9150611a5160208401611693565b90509250929050565b600181811c90821680611a6e57607f821691505b602082108103611a8e57634e487b7160e01b600052602260045260246000fd5b50919050565b60008151611aa6818560208601611617565b9290920192915050565b683d913730b6b2911d1160b91b81528551600090611ad5816009850160208b01611617565b71111610113232b9b1b934b83a34b7b7111d1160711b6009918401918201528651611b0781601b840160208b01611617565b6b1116101134b6b0b3b2911d1160a11b601b92909101918201528551611b34816027840160208a01611617565b7f222c202261747472696275746573223a5b7b2274726169745f74797065223a226027929091019182015271243ab6b4b234ba3c9116113b30b63ab2911d60711b60478201528451611b8d816059840160208901611617565b7f7d2c7b2274726169745f74797065223a2257696e64205370656564222c2276616059929091019182015264363ab2911d60d91b6079820152611be5611bd6607e830186611a94565b627d5d7d60e81b815260030190565b98975050505050505050565b60008351611c03818460208801611617565b835190830190611c17818360208801611617565b01949350505050565b601f821115610499576000816000526020600020601f850160051c81016020861015611c495750805b601f850160051c820191505b8181101561112257828155600101611c55565b815167ffffffffffffffff811115611c8257611c8261177e565b611c9681611c908454611a5a565b84611c20565b602080601f831160018114611ccb5760008415611cb35750858301515b600019600386901b1c1916600185901b178555611122565b600085815260208120601f198616915b82811015611cfa57888601518255948401946001909101908401611cdb565b5085821015611d185787850151600019600388901b60f8161c191681555b5050505050600190811b01905550565b634e487b7160e01b600052601160045260246000fd5b600060018201611d5057611d50611d28565b5060010190565b600082611d7457634e487b7160e01b600052601260045260246000fd5b500490565b8181038181111561031e5761031e611d28565b808202811582820484141761031e5761031e611d28565b60ff818116838216019081111561031e5761031e611d28565b634e487b7160e01b600052603260045260246000fd5b6001600160a01b0385811682528416602082015260408101839052608060608201819052600090611e059083018461163b565b9695505050505050565b600060208284031215611e2157600080fd5b81516111be816115e456fea26469706673582212201b573a9a68fbd853fcc610f7ce88c4d7c178046fad857290f97cdafa27987c1564736f6c63430008190033","linkReferences":{}},"methodIdentifiers":{"approve(address,uint256)":"095ea7b3","balanceOf(address)":"70a08231","generateTokenURI(string,string,string,uint256,uint256)":"93b00137","getApproved(uint256)":"081812fc","getWeatherData(uint256)":"d5c2ca6a","isApprovedForAll(address,address)":"e985e9c5","mintWeatherNFT(address,string,string,string,uint256,uint256)":"cebc32c4","name()":"06fdde03","owner()":"8da5cb5b","ownerOf(uint256)":"6352211e","renounceOwnership()":"715018a6","safeTransferFrom(address,address,uint256)":"42842e0e","safeTransferFrom(address,address,uint256,bytes)":"b88d4fde","setApprovalForAll(address,bool)":"a22cb465","supportsInterface(bytes4)":"01ffc9a7","symbol()":"95d89b41","tokenCounter()":"d082e381","tokenURI(uint256)":"c87b56dd","transferFrom(address,address,uint256)":"23b872dd","transferOwnership(address)":"f2fde38b","weatherData(uint256)":"876e0cb5"},"id":39}