{"abi":[{"type":"constructor","inputs":[{"name":"initialOwner","type":"address","internalType":"address"}],"stateMutability":"nonpayable"},{"type":"function","name":"approve","inputs":[{"name":"to","type":"address","internalType":"address"},{"name":"tokenId","type":"uint256","internalType":"uint256"}],"outputs":[],"stateMutability":"nonpayable"},{"type":"function","name":"balanceOf","inputs":[{"name":"owner","type":"address","internalType":"address"}],"outputs":[{"name":"","type":"uint256","internalType":"uint256"}],"stateMutability":"view"},{"type":"function","name":"generateTokenURI","inputs":[{"name":"name","type":"string","internalType":"string"},{"name":"description","type":"string","internalType":"string"},{"name":"image","type":"string","internalType":"string"},{"name":"humidity","type":"uint256","internalType":"uint256"},{"name":"windSpeed","type":"uint256","internalType":"uint256"}],"outputs":[{"name":"","type":"string","internalType":"string"}],"stateMutability":"pure"},{"type":"function","name":"getApproved","inputs":[{"name":"tokenId","type":"uint256","internalType":"uint256"}],"outputs":[{"name":"","type":"address","internalType":"address"}],"stateMutability":"view"},{"type":"function","name":"getWeatherData","inputs":[{"name":"tokenId","type":"uint256","internalType":"uint256"}],"outputs":[{"name":"","type":"string","internalType":"string"},{"name":"","type":"string","internalType":"string"},{"name":"","type":"string","internalType":"string"},{"name":"","type":"uint256","internalType":"uint256"},{"name":"","type":"uint256","internalType":"uint256"}],"stateMutability":"view"},{"type":"function","name":"isApprovedForAll","inputs":[{"name":"owner","type":"address","internalType":"address"},{"name":"operator","type":"address","internalType":"address"}],"outputs":[{"name":"","type":"bool","internalType":"bool"}],"stateMutability":"view"},{"type":"function","name":"mintWeatherNFT","inputs":[{"name":"to","type":"address","internalType":"address"},{"name":"name","type":"string","internalType":"string"},{"name":"description","type":"string","internalType":"string"},{"name":"image","type":"string","internalType":"string"},{"name":"humidity","type":"uint256","internalType":"uint256"},{"name":"windSpeed","type":"uint256","internalType":"uint256"}],"outputs":[],"stateMutability":"nonpayable"},{"type":"function","name":"name","inputs":[],"outputs":[{"name":"","type":"string","internalType":"string"}],"stateMutability":"view"},{"type":"function","name":"owner","inputs":[],"outputs":[{"name":"","type":"address","internalType":"address"}],"stateMutability":"view"},{"type":"function","name":"ownerOf","inputs":[{"name":"tokenId","type":"uint256","internalType":"uint256"}],"outputs":[{"name":"","type":"address","internalType":"address"}],"stateMutability":"view"},{"type":"function","name":"renounceOwnership","inputs":[],"outputs":[],"stateMutability":"nonpayable"},{"type":"function","name":"safeTransferFrom","inputs":[{"name":"from","type":"address","internalType":"address"},{"name":"to","type":"address","internalType":"address"},{"name":"tokenId","type":"uint256","internalType":"uint256"}],"outputs":[],"stateMutability":"nonpayable"},{"type":"function","name":"safeTransferFrom","inputs":[{"name":"from","type":"address","internalType":"address"},{"name":"to","type":"address","internalType":"address"},{"name":"tokenId","type":"uint256","internalType":"uint256"},{"name":"data","type":"bytes","internalType":"bytes"}],"outputs":[],"stateMutability":"nonpayable"},{"type":"function","name":"setApprovalForAll","inputs":[{"name":"operator","type":"address","internalType":"address"},{"name":"approved","type":"bool","internalType":"bool"}],"outputs":[],"stateMutability":"nonpayable"},{"type":"function","name":"supportsInterface","inputs":[{"name":"interfaceId","type":"bytes4","internalType":"bytes4"}],"outputs":[{"name":"","type":"bool","internalType":"bool"}],"stateMutability":"view"},{"type":"function","name":"symbol","inputs":[],"outputs":[{"name":"","type":"string","internalType":"string"}],"stateMutability":"view"},{"type":"function","name":"tokenCounter","inputs":[],"outputs":[{"name":"","type":"uint256","internalType":"uint256"}],"stateMutability":"view"},{"type":"function","name":"tokenURI","inputs":[{"name":"tokenId","type":"uint256","internalType":"uint256"}],"outputs":[{"name":"","type":"string","internalType":"string"}],"stateMutability":"view"},{"type":"function","name":"transferFrom","inputs":[{"name":"from","type":"address","internalType":"address"},{"name":"to","type":"address","internalType":"address"},{"name":"tokenId","type":"uint256","internalType":"uint256"}],"outputs":[],"stateMutability":"nonpayable"},{"type":"function","name":"transferOwnership","inputs":[{"name":"newOwner","type":"address","internalType":"address"}],"outputs":[],"stateMutability":"nonpayable"},{"type":"function","name":"updateWeatherData","inputs":[{"name":"tokenId","type":"uint256","internalType":"uint256"},{"name":"name","type":"string","internalType":"string"},{"name":"description","type":"string","internalType":"string"},{"name":"image","type":"string","internalType":"string"},{"name":"humidity","type":"uint256","internalType":"uint256"},{"name":"windSpeed","type":"uint256","internalType":"uint256"}],"outputs":[],"stateMutability":"nonpayable"},{"type":"function","name":"weatherData","inputs":[{"name":"","type":"uint256","internalType":"uint256"}],"outputs":[{"name":"name","type":"string","internalType":"string"},{"name":"description","type":"string","internalType":"string"},{"name":"image","type":"string","internalType":"string"},{"name":"humidity","type":"uint256","internalType":"uint256"},{"name":"windSpeed","type":"uint256","internalType":"uint256"}],"stateMutability":"view"},{"type":"event","name":"Approval","inputs":[{"name":"owner","type":"address","indexed":true,"internalType":"address"},{"name":"approved","type":"address","indexed":true,"internalType":"address"},{"name":"tokenId","type":"uint256","indexed":true,"internalType":"uint256"}],"anonymous":false},{"type":"event","name":"ApprovalForAll","inputs":[{"name":"owner","type":"address","indexed":true,"internalType":"address"},{"name":"operator","type":"address","indexed":true,"internalType":"address"},{"name":"approved","type":"bool","indexed":false,"internalType":"bool"}],"anonymous":false},{"type":"event","name":"BatchMetadataUpdate","inputs":[{"name":"_fromTokenId","type":"uint256","indexed":false,"internalType":"uint256"},{"name":"_toTokenId","type":"uint256","indexed":false,"internalType":"uint256"}],"anonymous":false},{"type":"event","name":"MetadataUpdate","inputs":[{"name":"_tokenId","type":"uint256","indexed":false,"internalType":"uint256"}],"anonymous":false},{"type":"event","name":"OwnershipTransferred","inputs":[{"name":"previousOwner","type":"address","indexed":true,"internalType":"address"},{"name":"newOwner","type":"address","indexed":true,"internalType":"address"}],"anonymous":false},{"type":"event","name":"Transfer","inputs":[{"name":"from","type":"address","indexed":true,"internalType":"address"},{"name":"to","type":"address","indexed":true,"internalType":"address"},{"name":"tokenId","type":"uint256","indexed":true,"internalType":"uint256"}],"anonymous":false},{"type":"error","name":"ERC721IncorrectOwner","inputs":[{"name":"sender","type":"address","internalType":"address"},{"name":"tokenId","type":"uint256","internalType":"uint256"},{"name":"owner","type":"address","internalType":"address"}]},{"type":"error","name":"ERC721InsufficientApproval","inputs":[{"name":"operator","type":"address","internalType":"address"},{"name":"tokenId","type":"uint256","internalType":"uint256"}]},{"type":"error","name":"ERC721InvalidApprover","inputs":[{"name":"approver","type":"address","internalType":"address"}]},{"type":"error","name":"ERC721InvalidOperator","inputs":[{"name":"operator","type":"address","internalType":"address"}]},{"type":"error","name":"ERC721InvalidOwner","inputs":[{"name":"owner","type":"address","internalType":"address"}]},{"type":"error","name":"ERC721InvalidReceiver","inputs":[{"name":"receiver","type":"address","internalType":"address"}]},{"type":"error","name":"ERC721InvalidSender","inputs":[{"name":"sender","type":"address","internalType":"address"}]},{"type":"error","name":"ERC721NonexistentToken","inputs":[{"name":"tokenId","type":"uint256","internalType":"uint256"}]},{"type":"error","name":"OwnableInvalidOwner","inputs":[{"name":"owner","type":"address","internalType":"address"}]},{"type":"error","name":"OwnableUnauthorizedAccount","inputs":[{"name":"account","type":"address","internalType":"address"}]}],"bytecode":{"object":"0x608060405234610398576124ec6020813803918261001c8161039d565b93849283398101031261039857516001600160a01b03811680820361039857610045604061039d565b91600a83526915d9585d1a195c93919560b21b6020840152610067604061039d565b600481526315d3919560e21b602082015283519092906001600160401b0381116102a357600054600181811c9116801561038e575b602082101461028357601f811161032a575b50602094601f82116001146102c4579481929394956000926102b9575b50508160011b916000199060031b1c1916176000555b82516001600160401b0381116102a357600154600181811c91168015610299575b602082101461028357601f811161021e575b506020601f82116001146101b757819293946000926101ac575b50508160011b916000199060031b1c1916176001555b1561019657610152816103c2565b6007546001600160a01b031633036101815761016d906103c2565b60016008556040516120e0908161040c8239f35b63118cdaa760e01b6000523360045260246000fd5b631e4fbdf760e01b600052600060045260246000fd5b01519050388061012e565b601f198216906001600052806000209160005b818110610206575095836001959697106101ed575b505050811b01600155610144565b015160001960f88460031b161c191690553880806101df565b9192602060018192868b0151815501940192016101ca565b60016000527fb10e2d527612073b26eecdfd717e6a320cf44b4afac2b0732d9fcbe2b7fa0cf6601f830160051c81019160208410610279575b601f0160051c01905b81811061026d5750610114565b60008155600101610260565b9091508190610257565b634e487b7160e01b600052602260045260246000fd5b90607f1690610102565b634e487b7160e01b600052604160045260246000fd5b0151905038806100cb565b601f1982169560008052806000209160005b888110610312575083600195969798106102f9575b505050811b016000556100e1565b015160001960f88460031b161c191690553880806102eb565b919260206001819286850151815501940192016102d6565b600080527f290decd9548b62a8d60345a988386fc84ba6bc95484008f6362f93160ef3e563601f830160051c81019160208410610384575b601f0160051c01905b81811061037857506100ae565b6000815560010161036b565b9091508190610362565b90607f169061009c565b600080fd5b6040519190601f01601f191682016001600160401b038111838210176102a357604052565b600780546001600160a01b039283166001600160a01b0319821681179092559091167f8be0079c531659141344cd1fd0a4f28419497f9722a3daafe3b4186f6b6457e0600080a356fe608080604052600436101561001357600080fd5b60003560e01c90816301ffc9a7146113cf5750806306fdde031461132a578063081812fc146112ec578063095ea7b3146111fd57806323b872dd146111e65780632ba82c1414610d9c57806342842e0e14610d6c5780636352211e14610d3c57806370a0823114610ce6578063715018a614610c89578063876e0cb514610c2b5780638da5cb5b14610c0257806393b0013714610b7f57806395d89b4114610ab2578063a22cb46514610a11578063b88d4fde146109a4578063c87b56dd14610971578063cebc32c4146102c2578063d082e381146102a4578063d5c2ca6a146101fb578063e985e9c5146101a05763f2fde38b1461011157600080fd5b3461019b57602036600319011261019b5761012a61149c565b610132611cac565b6001600160a01b0316801561018557600780546001600160a01b0319811683179091556001600160a01b03167f8be0079c531659141344cd1fd0a4f28419497f9722a3daafe3b4186f6b6457e0600080a3005b631e4fbdf760e01b600052600060045260246000fd5b600080fd5b3461019b57604036600319011261019b576101b961149c565b6101c16114b2565b9060018060a01b0316600052600560205260406000209060018060a01b0316600052602052602060ff604060002054166040519015158152f35b3461019b57602036600319011261019b5760043561022b6001600160a01b0361022383611c75565b161515611869565b6000526009602052604060002060405161024481611502565b61024d826115e8565b81526102a061025e600184016115e8565b9160208101928352610272600285016115e8565b938460408301526004600382015491826060850152015491826080820152519351946040519586958661168c565b0390f35b3461019b57600036600319011261019b576020600854604051908152f35b3461019b5760c036600319011261019b576102db61149c565b6024356001600160401b03811161019b576102fa903690600401611590565b906044356001600160401b03811161019b5761031a903690600401611590565b916064356001600160401b03811161019b5761033a903690600401611590565b610342611cac565b60085492602090604051610356838261151d565b600081526001600160a01b03821691821561095b5760008781526002855260018060a01b036040822054168885827fddf252ad1be2c89b69c2b068fc378daa952ba7f163c4a11628f55a4df523b3ef8115159586610927575b83815260038b5260408082208054600101905585825260028c52812080546001600160a01b0319168517905580a450610911573b6107e7575b50506040516103f681611502565b8381528582820152826040820152608435606082015260a4356080820152846000526009825260406000209181518051906001600160401b03821161064557819061044186546115ae565b601f8111610796575b508390601f831160011461073157600092610726575b50508160011b916000199060031b1c19161783555b808201518051906001600160401b03821161064557819061049960018701546115ae565b601f81116106d2575b508390601f83116001146106665760009261065b575b50508160011b916000199060031b1c19161760018401555b6040820151908151916001600160401b038311610645576104f460028601546115ae565b601f81116105fc575b5081601f841160011461057b57506105609895938361055a989694600494608094600092610570575b50508160011b916000199060031b1c19161760028501555b60608101516003850155015191015560a43592608435926118ac565b90611cd5565b61056b600854611c50565b600855005b015190508c80610526565b91906002860160005282600020926000905b601f19861682106105e4575050936001846004946080946105609d9a9861055a9c9a98601f198116106105cb575b505050811b01600285015561053e565b015160001960f88460031b161c191690558c80806105bb565b8060018596829496860151815501950193019061058d565b6002860160005282600020601f850160051c81019184861061063b575b601f0160051c01905b81811061062f57506104fd565b60008155600101610622565b9091508190610619565b634e487b7160e01b600052604160045260246000fd5b0151905089806104b8565b6001870160009081528581209350601f198516905b868282106106bc5750509084600195949392106106a3575b505050811b0160018401556104d0565b015160001960f88460031b161c19169055898080610693565b600185968293968601518155019501930161067b565b9091506001860160005283600020601f840160051c81019185851061071c575b90601f859493920160051c01905b81811061070d57506104a2565b60008155849350600101610700565b90915081906106f2565b015190508980610460565b60008781528581209350601f198516905b86828210610780575050908460019594939210610767575b505050811b018355610475565b015160001960f88460031b161c1916905589808061075a565b6001859682939686015181550195019301610742565b9091508560005283600020601f840160051c8101918585106107dd575b90601f859493920160051c01905b8181106107ce575061044a565b600081558493506001016107c1565b90915081906107b3565b82610828916040989694979593985180938192630a85bd0160e11b835233600484015260006024840152886044840152608060648401526084830190611477565b038160008b5af180916000916108cc575b50906108905786863d15610889573d6108518161153e565b9061085f604051928361151d565b81523d60008383013e5b805191826108865783633250574960e11b60005260045260246000fd5b01fd5b6060610869565b9395929491939092906001600160e01b03191663757a42ff60e11b016108b8575085806103e8565b633250574960e11b60005260045260246000fd5b8781813d831161090a575b6108e1818361151d565b810103126109065751906001600160e01b031982168203610903575088610839565b80fd5b5080fd5b503d6108d7565b6339e3563760e11b600052600060045260246000fd5b600085815260046020526040902080546001600160a01b031916905582815260038b526040812080546000190190556103af565b633250574960e11b600052600060045260246000fd5b3461019b57602036600319011261019b576102a0610990600435611a58565b604051918291602083526020830190611477565b3461019b57608036600319011261019b576109bd61149c565b6109c56114b2565b90604435606435926001600160401b03841161019b573660238501121561019b576109fd610a0f943690602481600401359101611559565b92610a098383836116d3565b33611f46565b005b3461019b57604036600319011261019b57610a2a61149c565b6024359081151580920361019b576001600160a01b0316908115610a9d57336000526005602052604060002082600052602052604060002060ff1981541660ff83161790556040519081527f17307eab39ab6107e8899845ad3d59bd9653f200f220920489ca2b5937696c3160203392a3005b50630b61174360e31b60005260045260246000fd5b3461019b57600036600319011261019b576040516000600154610ad4816115ae565b8084529060018116908115610b5b5750600114610afc575b6102a0836109908185038261151d565b600160009081527fb10e2d527612073b26eecdfd717e6a320cf44b4afac2b0732d9fcbe2b7fa0cf6939250905b808210610b4157509091508101602001610990610aec565b919260018160209254838588010152019101909291610b29565b60ff191660208086019190915291151560051b840190910191506109909050610aec565b3461019b5760a036600319011261019b576004356001600160401b03811161019b57610baf903690600401611590565b6024356001600160401b03811161019b57610bce903690600401611590565b604435906001600160401b03821161019b576102a092610bf5610990933690600401611590565b60843592606435926118ac565b3461019b57600036600319011261019b576007546040516001600160a01b039091168152602090f35b3461019b57602036600319011261019b5760043560005260096020526040600020610c55816115e8565b6102a0610c64600184016115e8565b92610c71600282016115e8565b9060046003820154910154916040519586958661168c565b3461019b57600036600319011261019b57610ca2611cac565b600780546001600160a01b031981169091556000906001600160a01b03167f8be0079c531659141344cd1fd0a4f28419497f9722a3daafe3b4186f6b6457e08280a3005b3461019b57602036600319011261019b576001600160a01b03610d0761149c565b168015610d265760005260036020526020604060002054604051908152f35b6322718ad960e21b600052600060045260246000fd5b3461019b57602036600319011261019b576020610d5a600435611c75565b6040516001600160a01b039091168152f35b3461019b57610a0f610d7d366114c8565b9060405192610d8d60208561151d565b60008452610a098383836116d3565b3461019b5760c036600319011261019b576004356024356001600160401b03811161019b57610dcf903690600401611590565b906044356001600160401b03811161019b57610def903690600401611590565b6064356001600160401b03811161019b57610e0e903690600401611590565b6084359060a43592610e1e611cac565b610e326001600160a01b0361022387611c75565b60405195610e3f87611502565b80875260208701968288526040810197848952606082018681526080830191888352896000526009602052604060002093518051906001600160401b038211610645578190610e8e87546115ae565b601f8111611193575b50602090601f831160011461112e57600092611123575b50508160011b916000199060031b1c19161784555b51805160018501916001600160401b038211610645578190610ee584546115ae565b601f81116110d0575b50602090601f831160011461106b57600092611060575b50508160011b916000199060031b1c19161790555b600283019951998a516001600160401b03811161064557610f3b82546115ae565b601f8111611018575b506020601f8211600114610f9e5791816004949261055a9c9b9a9998979694610a0f9f600092610f93575b50508160011b916000199060031b1c19161790555b516003840155519101556118ac565b015190508f80610f6f565b9b601f19821690836000528d6000209160005b818110610ffe57509261055a9c9b9a999897969492610a0f9f600193836004999710610fe5575b505050811b019055610f84565b015160001960f88460031b161c191690558f8080610fd8565b928f83015181556001019e602001926020019e929e610fb1565b826000526020600020601f830160051c81019160208410611056575b601f0160051c01905b81811061104a5750610f44565b6000815560010161103d565b9091508190611034565b015190508d80610f05565b60008581528281209350601f198516905b8181106110b8575090846001959493921061109f575b505050811b019055610f1a565b015160001960f88460031b161c191690558d8080611092565b9293602060018192878601518155019501930161107c565b909150836000526020600020601f840160051c81019160208510611119575b90601f859493920160051c01905b81811061110a5750610eee565b600081558493506001016110fd565b90915081906110ef565b015190508d80610eae565b60008881528281209350601f198516905b81811061117b5750908460019594939210611162575b505050811b018455610ec3565b015160001960f88460031b161c191690558d8080611155565b9293602060018192878601518155019501930161113f565b909150866000526020600020601f840160051c810191602085106111dc575b90601f859493920160051c01905b8181106111cd5750610e97565b600081558493506001016111c0565b90915081906111b2565b3461019b57610a0f6111f7366114c8565b916116d3565b3461019b57604036600319011261019b5761121661149c565b60243561122281611c75565b331515806112d9575b806112ab575b6112965781906001600160a01b0384811691167f8c5be1e5ebec7d5bd14f71427d1e84f3dd0314c0f7b2291e5b200ac8c7c3b925600080a4600090815260046020526040902080546001600160a01b0319166001600160a01b03909216919091179055005b63a9fbf51f60e01b6000523360045260246000fd5b506001600160a01b038116600090815260056020908152604080832033845290915290205460ff1615611231565b506001600160a01b03811633141561122b565b3461019b57602036600319011261019b5760043561130981611c75565b506000526004602052602060018060a01b0360406000205416604051908152f35b3461019b57600036600319011261019b576040516000805461134b816115ae565b8084529060018116908115610b5b5750600114611372576102a0836109908185038261151d565b60008080527f290decd9548b62a8d60345a988386fc84ba6bc95484008f6362f93160ef3e563939250905b8082106113b557509091508101602001610990610aec565b91926001816020925483858801015201910190929161139d565b3461019b57602036600319011261019b576004359063ffffffff60e01b821680920361019b57602091632483248360e11b8114908115611411575b5015158152f35b6380ac58cd60e01b811491508115611443575b8115611432575b508361140a565b6301ffc9a760e01b1490508361142b565b635b5e139f60e01b81149150611424565b60005b8381106114675750506000910152565b8181015183820152602001611457565b9060209161149081518092818552858086019101611454565b601f01601f1916010190565b600435906001600160a01b038216820361019b57565b602435906001600160a01b038216820361019b57565b606090600319011261019b576004356001600160a01b038116810361019b57906024356001600160a01b038116810361019b579060443590565b60a081019081106001600160401b0382111761064557604052565b90601f801991011681019081106001600160401b0382111761064557604052565b6001600160401b03811161064557601f01601f191660200190565b9291926115658261153e565b91611573604051938461151d565b82948184528183011161019b578281602093846000960137010152565b9080601f8301121561019b578160206115ab93359101611559565b90565b90600182811c921680156115de575b60208310146115c857565b634e487b7160e01b600052602260045260246000fd5b91607f16916115bd565b90604051918260008254926115fc846115ae565b808452936001811690811561166a5750600114611623575b506116219250038361151d565b565b90506000929192526020600020906000915b81831061164e5750509060206116219282010138611614565b6020919350806001915483858901015201910190918492611635565b90506020925061162194915060ff191682840152151560051b82010138611614565b91926116bb6080946116ad6116c9949998979960a0875260a0870190611477565b908582036020870152611477565b908382036040850152611477565b9460608201520152565b6001600160a01b039091169190821561095b576000828152600260205260408120546001600160a01b03169383918590331515806117d1575b507fddf252ad1be2c89b69c2b068fc378daa952ba7f163c4a11628f55a4df523b3ef908261179c575b83815260036020526040812060018154019055848152600260205260408120846bffffffffffffffffffffffff60a01b82541617905580a46001600160a01b031680830361178257505050565b6364283d7b60e01b60005260045260245260445260646000fd5b600085815260046020526040902080546001600160a01b03191690558281526003602052604081208054600019019055611735565b91509192508061181a575b156117eb57908484923861170c565b83908561180457602491637e27328960e01b8252600452fd5b60449163177e802f60e01b825233600452602452fd5b503385148015611848575b806117dc5750838152600460205260408120546001600160a01b031633146117dc565b5084815260056020908152604080832033845290915281205460ff16611825565b1561187057565b60405162461bcd60e51b8152602060048201526014602482015273151bdad95b88191bd95cc81b9bdd08195e1a5cdd60621b6044820152606490fd5b6032602592600c6118fd97601260039760296118d36118cd6115ab9c611e46565b94611e46565b95816040519d8e809b683d913730b6b2911d1160b91b602083015260208151948593019101611454565b890171111610113232b9b1b934b83a34b7b7111d1160711b8382015261192d825180936020603b85019101611454565b01016b1116101134b6b0b3b2911d1160a11b83820152611957825180936020601e85019101611454565b01017f222c202261747472696275746573223a5b7b2274726169745f74797065223a228382015271243ab6b4b234ba3c9116113b30b63ab2911d60711b602c8201526119ad825180936020603e85019101611454565b01017f7d2c7b2274726169745f74797065223a2257696e64205370656564222c2276618382015264363ab2911d60d91b60528201526119f6825180936020605785019101611454565b0101627d5d7d60e81b838201520301601c1981018452018261151d565b6116219092919260206040519482611a348794518092858088019101611454565b8301611a4882518093858085019101611454565b010103601f19810184528361151d565b611a6181611c75565b50806000526006602052611a7860406000206115e8565b611a8061206f565b805115611c4a578151611c40575050611a9881611c75565b50611aa161206f565b805190919060009015611c295750808160009272184f03e93ff9f4daa797ed6e38ed64bf6a1f0160401b811015611c03575b50806d04ee2d6d415b85acef8100000000600a921015611be8575b662386f26fc10000811015611bd4575b6305f5e100811015611bc3575b612710811015611bb4575b6064811015611ba6575b1015611b9b575b600a60216001840193611b398561153e565b94611b47604051968761151d565b808652611b56601f199161153e565b013660208701378401015b60001901916f181899199a1a9b1b9c1cb0b131b232b360811b8282061a835304908115611b9057600a90611b61565b50506115ab91611a13565b600190910190611b27565b606460029104930192611b20565b61271060049104930192611b16565b6305f5e10060089104930192611b0b565b662386f26fc1000060109104930192611afe565b6d04ee2d6d415b85acef810000000060209104930192611aee565b6040935072184f03e93ff9f4daa797ed6e38ed64bf6a1f0160401b90049050600a611ad3565b91505060405190611c3b60208361151d565b815290565b6115ab9250611a13565b50905090565b6000198114611c5f5760010190565b634e487b7160e01b600052601160045260246000fd5b6000818152600260205260409020546001600160a01b0316908115611c98575090565b637e27328960e01b60005260045260246000fd5b6007546001600160a01b03163303611cc057565b63118cdaa760e01b6000523360045260246000fd5b919091806000526006602052604060002083516001600160401b03811161064557611d0082546115ae565b601f8111611dfe575b506020601f8211600114611d7257908060209493927ff8e1a15aba9398e019f0b49df1a4fde98ee17ae345cb5f6b5e2c27f5033e8ce79697600092611d67575b50508160011b916000199060031b1c19161790555b604051908152a1565b015190503880611d49565b601f1982169583600052816000209660005b818110611de6575096600192849260209796957ff8e1a15aba9398e019f0b49df1a4fde98ee17ae345cb5f6b5e2c27f5033e8ce7999a10611dcd575b505050811b019055611d5e565b015160001960f88460031b161c19169055388080611dc0565b83830151895560019098019760209384019301611d84565b826000526020600020601f830160051c81019160208410611e3c575b601f0160051c01905b818110611e305750611d09565b60008155600101611e23565b9091508190611e1a565b908115611f25579080816000925b611f0b5750611e628261153e565b91611e70604051938461151d565b808352601f19611e7f8261153e565b01366020850137905b818115611f05576000198301928311611c5f5782600a830492600a8402848104600a1485151715611c5f578103908111611c5f5760ff166030019060ff8211611c5f5785511115611eef5760f81b6001600160f81b03191660001a908401601f0153611e88565b634e487b7160e01b600052603260045260246000fd5b50505090565b91611f1a600a91949294611c50565b920480939193611e54565b9050604051611f3560408261151d565b60018152600360fc1b602082015290565b823b611f54575b5050505050565b604051630a85bd0160e11b81526001600160a01b039182166004820152918116602483015260448201939093526080606482015291169160209082908190611fa0906084830190611477565b03816000865af1809160009161202c575b509061200a57503d15612003573d611fc88161153e565b90611fd6604051928361151d565b81523d6000602083013e5b80519081611ffe5782633250574960e11b60005260045260246000fd5b602001fd5b6060611fe1565b6001600160e01b03191663757a42ff60e11b016108b857503880808080611f4d565b6020813d602011612067575b816120456020938361151d565b810103126109065751906001600160e01b031982168203610903575038611fb1565b3d9150612038565b6040519061207e60408361151d565b601d82527f68747470733a2f2f6578616d706c652d626173652d7572692e636f6d2f000000602083015256fea2646970667358221220aa955d464be132574bd7a6056205bb028d3e733c459437418d9471cb0297ffc864736f6c634300081a0033","linkReferences":{}},"methodIdentifiers":{"approve(address,uint256)":"095ea7b3","balanceOf(address)":"70a08231","generateTokenURI(string,string,string,uint256,uint256)":"93b00137","getApproved(uint256)":"081812fc","getWeatherData(uint256)":"d5c2ca6a","isApprovedForAll(address,address)":"e985e9c5","mintWeatherNFT(address,string,string,string,uint256,uint256)":"cebc32c4","name()":"06fdde03","owner()":"8da5cb5b","ownerOf(uint256)":"6352211e","renounceOwnership()":"715018a6","safeTransferFrom(address,address,uint256)":"42842e0e","safeTransferFrom(address,address,uint256,bytes)":"b88d4fde","setApprovalForAll(address,bool)":"a22cb465","supportsInterface(bytes4)":"01ffc9a7","symbol()":"95d89b41","tokenCounter()":"d082e381","tokenURI(uint256)":"c87b56dd","transferFrom(address,address,uint256)":"23b872dd","transferOwnership(address)":"f2fde38b","updateWeatherData(uint256,string,string,string,uint256,uint256)":"2ba82c14","weatherData(uint256)":"876e0cb5"},"id":39}